{
  "contractName": "CommitRevealElections",
  "abi": [
    {
      "inputs": [
        {
          "internalType": "uint256",
          "name": "_timeForProposal",
          "type": "uint256"
        },
        {
          "internalType": "uint256",
          "name": "_timeForCommitment",
          "type": "uint256"
        },
        {
          "internalType": "uint256",
          "name": "_timeForReveal",
          "type": "uint256"
        },
        {
          "internalType": "uint256",
          "name": "_maximumChoices",
          "type": "uint256"
        },
        {
          "internalType": "string",
          "name": "_ballotTitle",
          "type": "string"
        },
        {
          "internalType": "address",
          "name": "_owner",
          "type": "address"
        },
        {
          "internalType": "address[]",
          "name": "_listOfWAddress",
          "type": "address[]"
        },
        {
          "internalType": "string[]",
          "name": "_startingCand",
          "type": "string[]"
        },
        {
          "internalType": "uint256",
          "name": "_startingV",
          "type": "uint256"
        },
        {
          "internalType": "uint256",
          "name": "_numofWinners",
          "type": "uint256"
        },
        {
          "internalType": "uint256",
          "name": "_amountOfStake",
          "type": "uint256"
        }
      ],
      "stateMutability": "nonpayable",
      "type": "constructor"
    },
    {
      "anonymous": false,
      "inputs": [
        {
          "indexed": false,
          "internalType": "string",
          "name": "newCand",
          "type": "string"
        }
      ],
      "name": "candidateSet",
      "type": "event"
    },
    {
      "anonymous": false,
      "inputs": [
        {
          "indexed": false,
          "internalType": "uint256",
          "name": "missingT",
          "type": "uint256"
        }
      ],
      "name": "missingTime",
      "type": "event"
    },
    {
      "anonymous": false,
      "inputs": [
        {
          "indexed": false,
          "internalType": "string",
          "name": "intro1",
          "type": "string"
        },
        {
          "indexed": false,
          "internalType": "bytes32",
          "name": "newVoteC",
          "type": "bytes32"
        }
      ],
      "name": "newVoteCommit",
      "type": "event"
    },
    {
      "anonymous": false,
      "inputs": [
        {
          "indexed": false,
          "internalType": "string",
          "name": "intro2",
          "type": "string"
        },
        {
          "indexed": false,
          "internalType": "bytes32",
          "name": "newVoteR",
          "type": "bytes32"
        }
      ],
      "name": "newVoteRevealed",
      "type": "event"
    },
    {
      "anonymous": false,
      "inputs": [
        {
          "indexed": false,
          "internalType": "string",
          "name": "intro3",
          "type": "string"
        },
        {
          "indexed": false,
          "internalType": "string[]",
          "name": "winnersN",
          "type": "string[]"
        },
        {
          "indexed": false,
          "internalType": "uint256[]",
          "name": "votesOfWinn",
          "type": "uint256[]"
        }
      ],
      "name": "winnersResults",
      "type": "event"
    },
    {
      "inputs": [],
      "name": "amountOfStake",
      "outputs": [
        {
          "internalType": "uint256",
          "name": "",
          "type": "uint256"
        }
      ],
      "stateMutability": "view",
      "type": "function",
      "constant": true
    },
    {
      "inputs": [],
      "name": "maximumChoicesAllowed",
      "outputs": [
        {
          "internalType": "uint256",
          "name": "",
          "type": "uint256"
        }
      ],
      "stateMutability": "view",
      "type": "function",
      "constant": true
    },
    {
      "inputs": [],
      "name": "numberOfChoices",
      "outputs": [
        {
          "internalType": "uint256",
          "name": "",
          "type": "uint256"
        }
      ],
      "stateMutability": "view",
      "type": "function",
      "constant": true
    },
    {
      "inputs": [],
      "name": "numofWinners",
      "outputs": [
        {
          "internalType": "uint256",
          "name": "",
          "type": "uint256"
        }
      ],
      "stateMutability": "view",
      "type": "function",
      "constant": true
    },
    {
      "inputs": [],
      "name": "owner",
      "outputs": [
        {
          "internalType": "address",
          "name": "",
          "type": "address"
        }
      ],
      "stateMutability": "view",
      "type": "function",
      "constant": true
    },
    {
      "inputs": [
        {
          "internalType": "string",
          "name": "_candidate",
          "type": "string"
        }
      ],
      "name": "setCandidates",
      "outputs": [],
      "stateMutability": "nonpayable",
      "type": "function"
    },
    {
      "inputs": [
        {
          "internalType": "bytes32",
          "name": "_voteCommitment",
          "type": "bytes32"
        },
        {
          "internalType": "uint256",
          "name": "_ammontare",
          "type": "uint256"
        }
      ],
      "name": "commitVote",
      "outputs": [],
      "stateMutability": "payable",
      "type": "function",
      "payable": true
    },
    {
      "inputs": [
        {
          "internalType": "string",
          "name": "_vote",
          "type": "string"
        },
        {
          "internalType": "bytes32",
          "name": "_voteCommit",
          "type": "bytes32"
        }
      ],
      "name": "revealVote",
      "outputs": [],
      "stateMutability": "nonpayable",
      "type": "function"
    },
    {
      "inputs": [],
      "name": "getWinners",
      "outputs": [
        {
          "internalType": "string[]",
          "name": "",
          "type": "string[]"
        },
        {
          "internalType": "uint256[]",
          "name": "",
          "type": "uint256[]"
        }
      ],
      "stateMutability": "nonpayable",
      "type": "function"
    },
    {
      "inputs": [],
      "name": "applyForRights",
      "outputs": [],
      "stateMutability": "nonpayable",
      "type": "function"
    },
    {
      "inputs": [],
      "name": "showApplierForRights",
      "outputs": [
        {
          "internalType": "address[]",
          "name": "",
          "type": "address[]"
        }
      ],
      "stateMutability": "view",
      "type": "function",
      "constant": true
    },
    {
      "inputs": [
        {
          "internalType": "address[]",
          "name": "_newWhiteAddresses",
          "type": "address[]"
        }
      ],
      "name": "giveRightsToAddresses",
      "outputs": [],
      "stateMutability": "nonpayable",
      "type": "function"
    },
    {
      "inputs": [],
      "name": "showCandidates",
      "outputs": [
        {
          "internalType": "string[]",
          "name": "",
          "type": "string[]"
        }
      ],
      "stateMutability": "view",
      "type": "function",
      "constant": true
    },
    {
      "inputs": [
        {
          "internalType": "string",
          "name": "_candidate",
          "type": "string"
        }
      ],
      "name": "votesForACandidate",
      "outputs": [
        {
          "internalType": "uint256",
          "name": "",
          "type": "uint256"
        }
      ],
      "stateMutability": "view",
      "type": "function",
      "constant": true
    },
    {
      "inputs": [],
      "name": "getRemainingTimeForProposal",
      "outputs": [
        {
          "internalType": "uint256",
          "name": "",
          "type": "uint256"
        }
      ],
      "stateMutability": "nonpayable",
      "type": "function"
    },
    {
      "inputs": [],
      "name": "getRemainingTimeForCommitment",
      "outputs": [
        {
          "internalType": "uint256",
          "name": "",
          "type": "uint256"
        }
      ],
      "stateMutability": "nonpayable",
      "type": "function"
    },
    {
      "inputs": [],
      "name": "getRemainingTimeForReveal",
      "outputs": [
        {
          "internalType": "uint256",
          "name": "",
          "type": "uint256"
        }
      ],
      "stateMutability": "nonpayable",
      "type": "function"
    },
    {
      "inputs": [],
      "name": "getTitle",
      "outputs": [
        {
          "internalType": "string",
          "name": "",
          "type": "string"
        }
      ],
      "stateMutability": "view",
      "type": "function",
      "constant": true
    },
    {
      "inputs": [],
      "name": "ballotBalance",
      "outputs": [
        {
          "internalType": "uint256",
          "name": "balanceEth",
          "type": "uint256"
        }
      ],
      "stateMutability": "view",
      "type": "function",
      "constant": true
    }
  ],
  "bytecode": "0x608060405260006013553480156200001657600080fd5b5060405162004ce738038062004ce783398181016040528101906200003c9190620007c3565b60148a10156200004b57600080fd5b60148910156200005a57600080fd5b87845111156200006957600080fd5b8760068190555060018b6200007f91906200095c565b426200008c9190620009bd565b60008190555060018a620000a191906200095c565b600054620000b09190620009bd565b600181905550600189620000c591906200095c565b600154620000d49190620009bd565b6002819055508660039080519060200190620000f292919062000304565b5082600581905550670de0b6b3a7640000816200011091906200095c565b600a8190555085600760006101000a81548173ffffffffffffffffffffffffffffffffffffffff021916908373ffffffffffffffffffffffffffffffffffffffff16021790555060005b85518110156200026157600d6000018682815181106200017f576200017e62000a1a565b5b60200260200101519080600181540180825580915050600190039060005260206000200160009091909190916101000a81548173ffffffffffffffffffffffffffffffffffffffff021916908373ffffffffffffffffffffffffffffffffffffffff16021790555083600d600401600088848151811062000205576200020462000a1a565b5b602002602001015173ffffffffffffffffffffffffffffffffffffffff1673ffffffffffffffffffffffffffffffffffffffff168152602001908152602001600020819055508080620002589062000a49565b9150506200015a565b5060005b8451811015620002e357600b6000018582815181106200028a576200028962000a1a565b5b6020026020010151908060018154018082558091505060019003906000526020600020016000909190919091509080519060200190620002cc92919062000304565b508080620002da9062000a49565b91505062000265565b50835160088190555081600981905550505050505050505050505062000afa565b828054620003129062000ac5565b90600052602060002090601f01602090048101928262000336576000855562000382565b82601f106200035157805160ff191683800117855562000382565b8280016001018555821562000382579182015b828111156200038157825182559160200191906001019062000364565b5b50905062000391919062000395565b5090565b5b80821115620003b057600081600090555060010162000396565b5090565b6000604051905090565b600080fd5b600080fd5b6000819050919050565b620003dd81620003c8565b8114620003e957600080fd5b50565b600081519050620003fd81620003d2565b92915050565b600080fd5b600080fd5b6000601f19601f8301169050919050565b7f4e487b7100000000000000000000000000000000000000000000000000000000600052604160045260246000fd5b62000458826200040d565b810181811067ffffffffffffffff821117156200047a57620004796200041e565b5b80604052505050565b60006200048f620003b4565b90506200049d82826200044d565b919050565b600067ffffffffffffffff821115620004c057620004bf6200041e565b5b620004cb826200040d565b9050602081019050919050565b60005b83811015620004f8578082015181840152602081019050620004db565b8381111562000508576000848401525b50505050565b6000620005256200051f84620004a2565b62000483565b90508281526020810184848401111562000544576200054362000408565b5b62000551848285620004d8565b509392505050565b600082601f83011262000571576200057062000403565b5b8151620005838482602086016200050e565b91505092915050565b600073ffffffffffffffffffffffffffffffffffffffff82169050919050565b6000620005b9826200058c565b9050919050565b620005cb81620005ac565b8114620005d757600080fd5b50565b600081519050620005eb81620005c0565b92915050565b600067ffffffffffffffff8211156200060f576200060e6200041e565b5b602082029050602081019050919050565b600080fd5b60006200063c6200063684620005f1565b62000483565b9050808382526020820190506020840283018581111562000662576200066162000620565b5b835b818110156200068f57806200067a8882620005da565b84526020840193505060208101905062000664565b5050509392505050565b600082601f830112620006b157620006b062000403565b5b8151620006c384826020860162000625565b91505092915050565b600067ffffffffffffffff821115620006ea57620006e96200041e565b5b602082029050602081019050919050565b6000620007126200070c84620006cc565b62000483565b9050808382526020820190506020840283018581111562000738576200073762000620565b5b835b818110156200078657805167ffffffffffffffff81111562000761576200076062000403565b5b80860162000770898262000559565b855260208501945050506020810190506200073a565b5050509392505050565b600082601f830112620007a857620007a762000403565b5b8151620007ba848260208601620006fb565b91505092915050565b60008060008060008060008060008060006101608c8e031215620007ec57620007eb620003be565b5b6000620007fc8e828f01620003ec565b9b505060206200080f8e828f01620003ec565b9a50506040620008228e828f01620003ec565b9950506060620008358e828f01620003ec565b98505060808c015167ffffffffffffffff811115620008595762000858620003c3565b5b620008678e828f0162000559565b97505060a06200087a8e828f01620005da565b96505060c08c015167ffffffffffffffff8111156200089e576200089d620003c3565b5b620008ac8e828f0162000699565b95505060e08c015167ffffffffffffffff811115620008d057620008cf620003c3565b5b620008de8e828f0162000790565b945050610100620008f28e828f01620003ec565b935050610120620009068e828f01620003ec565b9250506101406200091a8e828f01620003ec565b9150509295989b509295989b9093969950565b7f4e487b7100000000000000000000000000000000000000000000000000000000600052601160045260246000fd5b60006200096982620003c8565b91506200097683620003c8565b9250817fffffffffffffffffffffffffffffffffffffffffffffffffffffffffffffffff0483118215151615620009b257620009b16200092d565b5b828202905092915050565b6000620009ca82620003c8565b9150620009d783620003c8565b9250827fffffffffffffffffffffffffffffffffffffffffffffffffffffffffffffffff0382111562000a0f5762000a0e6200092d565b5b828201905092915050565b7f4e487b7100000000000000000000000000000000000000000000000000000000600052603260045260246000fd5b600062000a5682620003c8565b91507fffffffffffffffffffffffffffffffffffffffffffffffffffffffffffffffff820362000a8b5762000a8a6200092d565b5b600182019050919050565b7f4e487b7100000000000000000000000000000000000000000000000000000000600052602260045260246000fd5b6000600282049050600182168062000ade57607f821691505b60208210810362000af45762000af362000a96565b5b50919050565b6141dd8062000b0a6000396000f3fe6080604052600436106101145760003560e01c80638da5cb5b116100a0578063d43b6f6211610064578063d43b6f621461037f578063d79d15d81461039b578063df15c37e146103c6578063f7771609146103f2578063ff3c1a8f1461040957610114565b80638da5cb5b14610298578063b77ab613146102c3578063bbbb97e1146102ee578063c230f25c14610317578063c98eef511461034257610114565b806329dafb99116100e757806329dafb99146101c35780634d14e344146101ee57806364c1b03e146102195780636a48968914610244578063898a2e781461026d57610114565b80630907f05b146101195780630bbfc20614610144578063119aa7aa1461016d5780631d7b90e014610198575b600080fd5b34801561012557600080fd5b5061012e610434565b60405161013b9190612b2b565b60405180910390f35b34801561015057600080fd5b5061016b60048036038101906101669190612cd6565b61043a565b005b34801561017957600080fd5b50610182610d6e565b60405161018f9190612b2b565b60405180910390f35b3480156101a457600080fd5b506101ad610e5b565b6040516101ba9190612e7c565b60405180910390f35b3480156101cf57600080fd5b506101d8610f86565b6040516101e59190612b2b565b60405180910390f35b3480156101fa57600080fd5b506102036110b7565b6040516102109190612b2b565b60405180910390f35b34801561022557600080fd5b5061022e6110bd565b60405161023b9190612b2b565b60405180910390f35b34801561025057600080fd5b5061026b60048036038101906102669190612e9e565b6110c3565b005b34801561027957600080fd5b506102826113b9565b60405161028f9190612b2b565b60405180910390f35b3480156102a457600080fd5b506102ad611451565b6040516102ba9190612f28565b60405180910390f35b3480156102cf57600080fd5b506102d8611477565b6040516102e59190612b2b565b60405180910390f35b3480156102fa57600080fd5b5061031560048036038101906103109190613037565b6115a8565b005b34801561032357600080fd5b5061032c611783565b6040516103399190612b2b565b60405180910390f35b34801561034e57600080fd5b5061036960048036038101906103649190612e9e565b611789565b6040516103769190612b2b565b60405180910390f35b610399600480360381019061039491906130ac565b611889565b005b3480156103a757600080fd5b506103b0611d70565b6040516103bd91906131aa565b60405180910390f35b3480156103d257600080fd5b506103db611ed3565b6040516103e992919061328a565b60405180910390f35b3480156103fe57600080fd5b50610407612385565b005b34801561041557600080fd5b5061041e612505565b60405161042b919061330b565b60405180910390f35b60095481565b60011515610447336125e6565b151514610489576040517f08c379a00000000000000000000000000000000000000000000000000000000081526004016104809061339f565b60405180910390fd5b60005b600d60010160003373ffffffffffffffffffffffffffffffffffffffff1673ffffffffffffffffffffffffffffffffffffffff168152602001908152602001600020805490508110156105a65760011515600d60010160003373ffffffffffffffffffffffffffffffffffffffff1673ffffffffffffffffffffffffffffffffffffffff1681526020019081526020016000208281548110610531576105306133bf565b5b90600052602060002090602091828204019190069054906101000a900460ff16151514610593576040517f08c379a000000000000000000000000000000000000000000000000000000000815260040161058a90613460565b60405180910390fd5b808061059e906134af565b91505061048c565b50600d60030160003373ffffffffffffffffffffffffffffffffffffffff1673ffffffffffffffffffffffffffffffffffffffff16815260200190815260200160002080549050600d60010160003373ffffffffffffffffffffffffffffffffffffffff1673ffffffffffffffffffffffffffffffffffffffff1681526020019081526020016000208054905014610673576040517f08c379a000000000000000000000000000000000000000000000000000000000815260040161066a90613460565b60405180910390fd5b60015442116106b7576040517f08c379a00000000000000000000000000000000000000000000000000000000081526004016106ae90613569565b60405180910390fd5b6002544211156106fc576040517f08c379a00000000000000000000000000000000000000000000000000000000081526004016106f3906135d5565b60405180910390fd5b60005b600d60030160003373ffffffffffffffffffffffffffffffffffffffff1673ffffffffffffffffffffffffffffffffffffffff168152602001908152602001600020805490508110156108275781600d60030160003373ffffffffffffffffffffffffffffffffffffffff1673ffffffffffffffffffffffffffffffffffffffff16815260200190815260200160002082815481106107a1576107a06133bf565b5b90600052602060002001540361080e576001601760003373ffffffffffffffffffffffffffffffffffffffff1673ffffffffffffffffffffffffffffffffffffffff16815260200190815260200160002060006101000a81548160ff021916908315150217905550610813565b610814565b5b808061081f906134af565b9150506106ff565b5060011515601760003373ffffffffffffffffffffffffffffffffffffffff1673ffffffffffffffffffffffffffffffffffffffff16815260200190815260200160002060009054906101000a900460ff161515146108bb576040517f08c379a00000000000000000000000000000000000000000000000000000000081526004016108b290613641565b60405180910390fd5b60006015600083815260200190815260200160002080546108db90613690565b80601f016020809104026020016040519081016040528092919081815260200182805461090790613690565b80156109545780601f1061092957610100808354040283529160200191610954565b820191906000526020600020905b81548152906001019060200180831161093757829003601f168201915b505050505090507f4300000000000000000000000000000000000000000000000000000000000000816000815181106109905761098f6133bf565b5b602001015160f81c60f81b7effffffffffffffffffffffffffffffffffffffffffffffffffffffffffffff1916146109fd576040517f08c379a00000000000000000000000000000000000000000000000000000000081526004016109f49061370d565b60405180910390fd5b82604051602001610a0e9190613769565b604051602081830303815290604052805190602001208214610a65576040517f08c379a0000000000000000000000000000000000000000000000000000000008152600401610a5c906137f2565b60405180910390fd5b6000610a70846126a1565b9050600080600190505b82811015610b05576000610a8f82838961295a565b9050604051602001610aa09061385e565b6040516020818303038152906040528051906020012081604051602001610ac79190613769565b6040516020818303038152906040528051906020012003610aea57819250610af0565b50610af2565b505b8080610afd906134af565b915050610a7a565b506000610b1f60018084610b199190613873565b8861295a565b905060005b600854811015610c2d57600b6000018181548110610b4557610b446133bf565b5b90600052602060002001604051602001610b5f919061393b565b6040516020818303038152906040528051906020012082604051602001610b869190613769565b6040516020818303038152906040528051906020012003610c1457600d600501600087815260200190815260200160002054600b600101600b6000018381548110610bd457610bd36133bf565b5b90600052602060002001604051610beb919061393b565b90815260200160405180910390206000828254610c089190613952565b92505081905550610c19565b610c1a565b5b8080610c25906134af565b915050610b24565b506040518060400160405280600881526020017f52657665616c6564000000000000000000000000000000000000000000000000815250601560008781526020019081526020016000209080519060200190610c8a929190612a6f565b503373ffffffffffffffffffffffffffffffffffffffff166108fc600a549081150290604051600060405180830381858888f19350505050158015610cd3573d6000803e3d6000fd5b50600a54600d60020160003373ffffffffffffffffffffffffffffffffffffffff1673ffffffffffffffffffffffffffffffffffffffff1681526020019081526020016000206000828254610d289190613873565b925050819055507f7e094bf099771a572b9efd9d9853304cae7d92dbffec37386230e97f905f0cd385604051610d5e9190613a29565b60405180910390a1505050505050565b600060011515610d7d336125e6565b151514610dbf576040517f08c379a0000000000000000000000000000000000000000000000000000000008152600401610db69061339f565b60405180910390fd5b600054421115610e04576040517f08c379a0000000000000000000000000000000000000000000000000000000008152600401610dfb90613aa3565b60405180910390fd5b7f896f74c0d202a07c1f13f786572b3cb9ac38771ea2b10f1d262d5803fd3406e842600054610e339190613873565b604051610e409190612b2b565b60405180910390a142600054610e569190613873565b905090565b606060011515610e6a336125e6565b151514610eac576040517f08c379a0000000000000000000000000000000000000000000000000000000008152600401610ea39061339f565b60405180910390fd5b600b600001805480602002602001604051908101604052809291908181526020016000905b82821015610f7d578382906000526020600020018054610ef090613690565b80601f0160208091040260200160405190810160405280929190818152602001828054610f1c90613690565b8015610f695780601f10610f3e57610100808354040283529160200191610f69565b820191906000526020600020905b815481529060010190602001808311610f4c57829003601f168201915b505050505081526020019060010190610ed1565b50505050905090565b600060011515610f95336125e6565b151514610fd7576040517f08c379a0000000000000000000000000000000000000000000000000000000008152600401610fce9061339f565b60405180910390fd5b600154421161101b576040517f08c379a000000000000000000000000000000000000000000000000000000000815260040161101290613b35565b60405180910390fd5b600254421115611060576040517f08c379a000000000000000000000000000000000000000000000000000000000815260040161105790613ba1565b60405180910390fd5b7f896f74c0d202a07c1f13f786572b3cb9ac38771ea2b10f1d262d5803fd3406e84260025461108f9190613873565b60405161109c9190612b2b565b60405180910390a1426002546110b29190613873565b905090565b60085481565b600a5481565b600054421115611108576040517f08c379a00000000000000000000000000000000000000000000000000000000081526004016110ff90613aa3565b60405180910390fd5b600654600854111561114f576040517f08c379a000000000000000000000000000000000000000000000000000000000815260040161114690613c0d565b60405180910390fd5b6001151561115c336125e6565b15151461119e576040517f08c379a00000000000000000000000000000000000000000000000000000000081526004016111959061339f565b60405180910390fd5b60001515601660003373ffffffffffffffffffffffffffffffffffffffff1673ffffffffffffffffffffffffffffffffffffffff16815260200190815260200160002060009054906101000a900460ff16151514611231576040517f08c379a000000000000000000000000000000000000000000000000000000000815260040161122890613c79565b60405180910390fd5b60005b600b600001805490508110156112cf57600b600001818154811061125b5761125a6133bf565b5b90600052602060002001604051602001611275919061393b565b604051602081830303815290604052805190602001208260405160200161129c9190613769565b60405160208183030381529060405280519060200120036112bc57600080fd5b80806112c7906134af565b915050611234565b50600b6000018190806001815401808255809150506001900390600052602060002001600090919091909150908051906020019061130e929190612a6f565b506001601660003373ffffffffffffffffffffffffffffffffffffffff1673ffffffffffffffffffffffffffffffffffffffff16815260200190815260200160002060006101000a81548160ff0219169083151502179055506008600081548092919061137a906134af565b91905055507fd7ab240755347abbc853396b5387000ecb2f68ead9fca19f4c7df268072d0c1a816040516113ae919061330b565b60405180910390a150565b6000600760009054906101000a900473ffffffffffffffffffffffffffffffffffffffff1673ffffffffffffffffffffffffffffffffffffffff163373ffffffffffffffffffffffffffffffffffffffff161461144b576040517f08c379a000000000000000000000000000000000000000000000000000000000815260040161144290613d0b565b60405180910390fd5b47905090565b600760009054906101000a900473ffffffffffffffffffffffffffffffffffffffff1681565b600060011515611486336125e6565b1515146114c8576040517f08c379a00000000000000000000000000000000000000000000000000000000081526004016114bf9061339f565b60405180910390fd5b600054421161150c576040517f08c379a000000000000000000000000000000000000000000000000000000000815260040161150390613d9d565b60405180910390fd5b600154421115611551576040517f08c379a000000000000000000000000000000000000000000000000000000000815260040161154890613e09565b60405180910390fd5b7f896f74c0d202a07c1f13f786572b3cb9ac38771ea2b10f1d262d5803fd3406e8426001546115809190613873565b60405161158d9190612b2b565b60405180910390a1426001546115a39190613873565b905090565b600760009054906101000a900473ffffffffffffffffffffffffffffffffffffffff1673ffffffffffffffffffffffffffffffffffffffff163373ffffffffffffffffffffffffffffffffffffffff1614611638576040517f08c379a000000000000000000000000000000000000000000000000000000000815260040161162f90613d0b565b60405180910390fd5b60015442111561167d576040517f08c379a000000000000000000000000000000000000000000000000000000000815260040161167490613e09565b60405180910390fd5b60005b815181101561177f57600d6000018282815181106116a1576116a06133bf565b5b60200260200101519080600181540180825580915050600190039060005260206000200160009091909190916101000a81548173ffffffffffffffffffffffffffffffffffffffff021916908373ffffffffffffffffffffffffffffffffffffffff160217905550600554600d6004016000848481518110611726576117256133bf565b5b602002602001015173ffffffffffffffffffffffffffffffffffffffff1673ffffffffffffffffffffffffffffffffffffffff168152602001908152602001600020819055508080611777906134af565b915050611680565b5050565b60065481565b6000600760009054906101000a900473ffffffffffffffffffffffffffffffffffffffff1673ffffffffffffffffffffffffffffffffffffffff163373ffffffffffffffffffffffffffffffffffffffff161461181b576040517f08c379a000000000000000000000000000000000000000000000000000000000815260040161181290613d0b565b60405180910390fd5b600254421015611860576040517f08c379a000000000000000000000000000000000000000000000000000000000815260040161185790613e9b565b60405180910390fd5b600b600101826040516118739190613769565b9081526020016040518091039020549050919050565b60005442116118cd576040517f08c379a00000000000000000000000000000000000000000000000000000000081526004016118c490613d9d565b60405180910390fd5b600154421115611912576040517f08c379a000000000000000000000000000000000000000000000000000000000815260040161190990613e09565b60405180910390fd5b6001151561191f336125e6565b151514611961576040517f08c379a00000000000000000000000000000000000000000000000000000000081526004016119589061339f565b60405180910390fd5b600d60040160003373ffffffffffffffffffffffffffffffffffffffff1673ffffffffffffffffffffffffffffffffffffffff168152602001908152602001600020548111156119e6576040517f08c379a00000000000000000000000000000000000000000000000000000000081526004016119dd90613f2d565b60405180910390fd5b600a543414611a2a576040517f08c379a0000000000000000000000000000000000000000000000000000000008152600401611a2190613f99565b60405180910390fd5b6000601560008481526020019081526020016000208054611a4a90613690565b80601f0160208091040260200160405190810160405280929190818152602001828054611a7690613690565b8015611ac35780601f10611a9857610100808354040283529160200191611ac3565b820191906000526020600020905b815481529060010190602001808311611aa657829003601f168201915b505050505090506000815114611ad857600080fd5b60148390806001815401808255809150506001900390600052602060002001600090919091909150556040518060400160405280600981526020017f436f6d6d69747465640000000000000000000000000000000000000000000000815250601560008581526020019081526020016000209080519060200190611b5d929190612a6f565b50600d60030160003373ffffffffffffffffffffffffffffffffffffffff1673ffffffffffffffffffffffffffffffffffffffff1681526020019081526020016000208390806001815401808255809150506001900390600052602060002001600090919091909150558160136000828254611bd99190613952565b9250508190555081600d60050160008581526020019081526020016000208190555081600d60040160003373ffffffffffffffffffffffffffffffffffffffff1673ffffffffffffffffffffffffffffffffffffffff1681526020019081526020016000206000828254611c4d9190613873565b92505081905550600d60010160003373ffffffffffffffffffffffffffffffffffffffff1673ffffffffffffffffffffffffffffffffffffffff168152602001908152602001600020600190806001815401808255809150506001900390600052602060002090602091828204019190069091909190916101000a81548160ff021916908315150217905550600a54600d60020160003373ffffffffffffffffffffffffffffffffffffffff1673ffffffffffffffffffffffffffffffffffffffff1681526020019081526020016000206000828254611d2d9190613952565b925050819055507f651840caa1b0e1c52ec1324c2c0aca317ef17e709f0016630d8739f84c0f3f3683604051611d63919061402b565b60405180910390a1505050565b6060600760009054906101000a900473ffffffffffffffffffffffffffffffffffffffff1673ffffffffffffffffffffffffffffffffffffffff163373ffffffffffffffffffffffffffffffffffffffff1614611e02576040517f08c379a0000000000000000000000000000000000000000000000000000000008152600401611df990613d0b565b60405180910390fd5b600154421115611e47576040517f08c379a0000000000000000000000000000000000000000000000000000000008152600401611e3e90613e09565b60405180910390fd5b6004805480602002602001604051908101604052809291908181526020018280548015611ec957602002820191906000526020600020905b8160009054906101000a900473ffffffffffffffffffffffffffffffffffffffff1673ffffffffffffffffffffffffffffffffffffffff1681526020019060010190808311611e7f575b5050505050905090565b606080600760009054906101000a900473ffffffffffffffffffffffffffffffffffffffff1673ffffffffffffffffffffffffffffffffffffffff163373ffffffffffffffffffffffffffffffffffffffff1614611f66576040517f08c379a0000000000000000000000000000000000000000000000000000000008152600401611f5d90613d0b565b60405180910390fd5b6002544211611faa576040517f08c379a0000000000000000000000000000000000000000000000000000000008152600401611fa190613e9b565b60405180910390fd5b600060095467ffffffffffffffff811115611fc857611fc7612b75565b5b604051908082528060200260200182016040528015611ff65781602001602082028036833780820191505090505b509050600060095467ffffffffffffffff81111561201757612016612b75565b5b60405190808252806020026020018201604052801561204a57816020015b60608152602001906001900390816120355790505b50905060005b6009548110156122ce5760005b600b6000018054905081101561226957600b600101600b6000018281548110612089576120886133bf565b5b906000526020600020016040516120a0919061393b565b9081526020016040518091039020548483815181106120c2576120c16133bf565b5b6020026020010151111580156121275750600015156018600b60000183815481106120f0576120ef6133bf565b5b90600052602060002001604051612107919061393b565b908152602001604051809103902060009054906101000a900460ff161515145b1561225657600b600101600b6000018281548110612148576121476133bf565b5b9060005260206000200160405161215f919061393b565b908152602001604051809103902054848381518110612181576121806133bf565b5b602002602001018181525050600b60000181815481106121a4576121a36133bf565b5b9060005260206000200180546121b990613690565b80601f01602080910402602001604051908101604052809291908181526020018280546121e590613690565b80156122325780601f1061220757610100808354040283529160200191612232565b820191906000526020600020905b81548152906001019060200180831161221557829003601f168201915b505050505083838151811061224a576122496133bf565b5b60200260200101819052505b8080612261906134af565b91505061205d565b5060016018838381518110612281576122806133bf565b5b60200260200101516040516122969190613769565b908152602001604051809103902060006101000a81548160ff02191690831515021790555080806122c6906134af565b915050612050565b507fa0e7ad57bcf77471e4f839dbbe22ecadabac10a09681213a6fd19b526d87bba681836040516123009291906140cb565b60405180910390a160005b8151811015612378576000601883838151811061232b5761232a6133bf565b5b60200260200101516040516123409190613769565b908152602001604051809103902060006101000a81548160ff0219169083151502179055508080612370906134af565b91505061230b565b5080829350935050509091565b60005b600d6000018054905081101561245a57600d60000181815481106123af576123ae6133bf565b5b9060005260206000200160009054906101000a900473ffffffffffffffffffffffffffffffffffffffff1673ffffffffffffffffffffffffffffffffffffffff163373ffffffffffffffffffffffffffffffffffffffff1603612447576040517f08c379a000000000000000000000000000000000000000000000000000000000815260040161243e90614187565b60405180910390fd5b8080612452906134af565b915050612388565b506001544211156124a0576040517f08c379a000000000000000000000000000000000000000000000000000000000815260040161249790613e09565b60405180910390fd5b6004339080600181540180825580915050600190039060005260206000200160009091909190916101000a81548173ffffffffffffffffffffffffffffffffffffffff021916908373ffffffffffffffffffffffffffffffffffffffff160217905550565b606060011515612514336125e6565b151514612556576040517f08c379a000000000000000000000000000000000000000000000000000000000815260040161254d9061339f565b60405180910390fd5b6003805461256390613690565b80601f016020809104026020016040519081016040528092919081815260200182805461258f90613690565b80156125dc5780601f106125b1576101008083540402835291602001916125dc565b820191906000526020600020905b8154815290600101906020018083116125bf57829003601f168201915b5050505050905090565b600080600090505b600d60000180549050811015612696576000600d6000018281548110612617576126166133bf565b5b9060005260206000200160009054906101000a900473ffffffffffffffffffffffffffffffffffffffff1690508373ffffffffffffffffffffffffffffffffffffffff168173ffffffffffffffffffffffffffffffffffffffff16036126825760019250505061269c565b50808061268e906134af565b9150506125ee565b50600090505b919050565b6000806000905060008390505b805182101561295357600060f81b60078284815181106126d1576126d06133bf565b5b602001015160f81c60f81b7effffffffffffffffffffffffffffffffffffffffffffffffffffffffffffff1916901c7effffffffffffffffffffffffffffffffffffffffffffffffffffffffffffff19160361273b576001826127349190613952565b9150612940565b600660f81b7effffffffffffffffffffffffffffffffffffffffffffffffffffffffffffff19166005828481518110612777576127766133bf565b5b602001015160f81c60f81b7effffffffffffffffffffffffffffffffffffffffffffffffffffffffffffff1916901c7effffffffffffffffffffffffffffffffffffffffffffffffffffffffffffff1916036127e1576002826127da9190613952565b915061293f565b600e60f81b7effffffffffffffffffffffffffffffffffffffffffffffffffffffffffffff1916600482848151811061281d5761281c6133bf565b5b602001015160f81c60f81b7effffffffffffffffffffffffffffffffffffffffffffffffffffffffffffff1916901c7effffffffffffffffffffffffffffffffffffffffffffffffffffffffffffff191603612887576003826128809190613952565b915061293e565b601e60f81b7effffffffffffffffffffffffffffffffffffffffffffffffffffffffffffff191660038284815181106128c3576128c26133bf565b5b602001015160f81c60f81b7effffffffffffffffffffffffffffffffffffffffffffffffffffffffffffff1916901c7effffffffffffffffffffffffffffffffffffffffffffffffffffffffffffff19160361292d576004826129269190613952565b915061293d565b60018261293a9190613952565b91505b5b5b5b828061294b906134af565b9350506126ae565b5050919050565b606060006001858561296c9190613873565b6129769190613952565b67ffffffffffffffff81111561298f5761298e612b75565b5b6040519080825280601f01601f1916602001820160405280156129c15781602001600182028036833780820191505090505b50905060005b85856129d39190613873565b8111612a635783600187836129e89190613952565b6129f29190613873565b81518110612a0357612a026133bf565b5b602001015160f81c60f81b828281518110612a2157612a206133bf565b5b60200101907effffffffffffffffffffffffffffffffffffffffffffffffffffffffffffff1916908160001a9053508080612a5b906134af565b9150506129c7565b50809150509392505050565b828054612a7b90613690565b90600052602060002090601f016020900481019282612a9d5760008555612ae4565b82601f10612ab657805160ff1916838001178555612ae4565b82800160010185558215612ae4579182015b82811115612ae3578251825591602001919060010190612ac8565b5b509050612af19190612af5565b5090565b5b80821115612b0e576000816000905550600101612af6565b5090565b6000819050919050565b612b2581612b12565b82525050565b6000602082019050612b406000830184612b1c565b92915050565b6000604051905090565b600080fd5b600080fd5b600080fd5b600080fd5b6000601f19601f8301169050919050565b7f4e487b7100000000000000000000000000000000000000000000000000000000600052604160045260246000fd5b612bad82612b64565b810181811067ffffffffffffffff82111715612bcc57612bcb612b75565b5b80604052505050565b6000612bdf612b46565b9050612beb8282612ba4565b919050565b600067ffffffffffffffff821115612c0b57612c0a612b75565b5b612c1482612b64565b9050602081019050919050565b82818337600083830152505050565b6000612c43612c3e84612bf0565b612bd5565b905082815260208101848484011115612c5f57612c5e612b5f565b5b612c6a848285612c21565b509392505050565b600082601f830112612c8757612c86612b5a565b5b8135612c97848260208601612c30565b91505092915050565b6000819050919050565b612cb381612ca0565b8114612cbe57600080fd5b50565b600081359050612cd081612caa565b92915050565b60008060408385031215612ced57612cec612b50565b5b600083013567ffffffffffffffff811115612d0b57612d0a612b55565b5b612d1785828601612c72565b9250506020612d2885828601612cc1565b9150509250929050565b600081519050919050565b600082825260208201905092915050565b6000819050602082019050919050565b600081519050919050565b600082825260208201905092915050565b60005b83811015612d98578082015181840152602081019050612d7d565b83811115612da7576000848401525b50505050565b6000612db882612d5e565b612dc28185612d69565b9350612dd2818560208601612d7a565b612ddb81612b64565b840191505092915050565b6000612df28383612dad565b905092915050565b6000602082019050919050565b6000612e1282612d32565b612e1c8185612d3d565b935083602082028501612e2e85612d4e565b8060005b85811015612e6a5784840389528151612e4b8582612de6565b9450612e5683612dfa565b925060208a01995050600181019050612e32565b50829750879550505050505092915050565b60006020820190508181036000830152612e968184612e07565b905092915050565b600060208284031215612eb457612eb3612b50565b5b600082013567ffffffffffffffff811115612ed257612ed1612b55565b5b612ede84828501612c72565b91505092915050565b600073ffffffffffffffffffffffffffffffffffffffff82169050919050565b6000612f1282612ee7565b9050919050565b612f2281612f07565b82525050565b6000602082019050612f3d6000830184612f19565b92915050565b600067ffffffffffffffff821115612f5e57612f5d612b75565b5b602082029050602081019050919050565b600080fd5b612f7d81612f07565b8114612f8857600080fd5b50565b600081359050612f9a81612f74565b92915050565b6000612fb3612fae84612f43565b612bd5565b90508083825260208201905060208402830185811115612fd657612fd5612f6f565b5b835b81811015612fff5780612feb8882612f8b565b845260208401935050602081019050612fd8565b5050509392505050565b600082601f83011261301e5761301d612b5a565b5b813561302e848260208601612fa0565b91505092915050565b60006020828403121561304d5761304c612b50565b5b600082013567ffffffffffffffff81111561306b5761306a612b55565b5b61307784828501613009565b91505092915050565b61308981612b12565b811461309457600080fd5b50565b6000813590506130a681613080565b92915050565b600080604083850312156130c3576130c2612b50565b5b60006130d185828601612cc1565b92505060206130e285828601613097565b9150509250929050565b600081519050919050565b600082825260208201905092915050565b6000819050602082019050919050565b61312181612f07565b82525050565b60006131338383613118565b60208301905092915050565b6000602082019050919050565b6000613157826130ec565b61316181856130f7565b935061316c83613108565b8060005b8381101561319d5781516131848882613127565b975061318f8361313f565b925050600181019050613170565b5085935050505092915050565b600060208201905081810360008301526131c4818461314c565b905092915050565b600081519050919050565b600082825260208201905092915050565b6000819050602082019050919050565b61320181612b12565b82525050565b600061321383836131f8565b60208301905092915050565b6000602082019050919050565b6000613237826131cc565b61324181856131d7565b935061324c836131e8565b8060005b8381101561327d5781516132648882613207565b975061326f8361321f565b925050600181019050613250565b5085935050505092915050565b600060408201905081810360008301526132a48185612e07565b905081810360208301526132b8818461322c565b90509392505050565b600082825260208201905092915050565b60006132dd82612d5e565b6132e781856132c1565b93506132f7818560208601612d7a565b61330081612b64565b840191505092915050565b6000602082019050818103600083015261332581846132d2565b905092915050565b7f596f75277265206e6f7420616c6c6f77656420746f207061727469636970617460008201527f6520696e20746869732062616c6c6f7400000000000000000000000000000000602082015250565b60006133896030836132c1565b91506133948261332d565b604082019050919050565b600060208201905081810360008301526133b88161337c565b9050919050565b7f4e487b7100000000000000000000000000000000000000000000000000000000600052603260045260246000fd5b7f596f75206469646e2774206465706f73697420746865207374616b6520666f7260008201527f20616c6c20796f757220766f7465732100000000000000000000000000000000602082015250565b600061344a6030836132c1565b9150613455826133ee565b604082019050919050565b600060208201905081810360008301526134798161343d565b9050919050565b7f4e487b7100000000000000000000000000000000000000000000000000000000600052601160045260246000fd5b60006134ba82612b12565b91507fffffffffffffffffffffffffffffffffffffffffffffffffffffffffffffffff82036134ec576134eb613480565b5b600182019050919050565b7f54696d65206973206e6f74206f7665722120596f752063616e6e6f742072657660008201527f65616c20796f757220766f746520796574000000000000000000000000000000602082015250565b60006135536031836132c1565b915061355e826134f7565b604082019050919050565b6000602082019050818103600083015261358281613546565b9050919050565b7f52657665616c696e6720706572696f64206973206f7665722100000000000000600082015250565b60006135bf6019836132c1565b91506135ca82613589565b602082019050919050565b600060208201905081810360008301526135ee816135b2565b9050919050565b7f596f75206469646e27742063617374207468697320766f746521000000000000600082015250565b600061362b601a836132c1565b9150613636826135f5565b602082019050919050565b6000602082019050818103600083015261365a8161361e565b9050919050565b7f4e487b7100000000000000000000000000000000000000000000000000000000600052602260045260246000fd5b600060028204905060018216806136a857607f821691505b6020821081036136bb576136ba613661565b5b50919050565b7f5468697320766f74652077617320616c72656164792063617374000000000000600082015250565b60006136f7601a836132c1565b9150613702826136c1565b602082019050919050565b60006020820190508181036000830152613726816136ea565b9050919050565b600081905092915050565b600061374382612d5e565b61374d818561372d565b935061375d818560208601612d7a565b80840191505092915050565b60006137758284613738565b915081905092915050565b7f566f7465206861736820646f6573206e6f74206d6174636820766f746520636f60008201527f6d6d697400000000000000000000000000000000000000000000000000000000602082015250565b60006137dc6024836132c1565b91506137e782613780565b604082019050919050565b6000602082019050818103600083015261380b816137cf565b9050919050565b7f2d00000000000000000000000000000000000000000000000000000000000000600082015250565b600061384860018361372d565b915061385382613812565b600182019050919050565b60006138698261383b565b9150819050919050565b600061387e82612b12565b915061388983612b12565b92508282101561389c5761389b613480565b5b828203905092915050565b60008190508160005260206000209050919050565b600081546138c981613690565b6138d3818661372d565b945060018216600081146138ee57600181146138ff57613932565b60ff19831686528186019350613932565b613908856138a7565b60005b8381101561392a5781548189015260018201915060208101905061390b565b838801955050505b50505092915050565b600061394782846138bc565b915081905092915050565b600061395d82612b12565b915061396883612b12565b9250827fffffffffffffffffffffffffffffffffffffffffffffffffffffffffffffffff0382111561399d5761399c613480565b5b828201905092915050565b7f566f74652072657665616c656420616e6420636f756e7465642077697468206360008201527f6f6d6d69746d656e740000000000000000000000000000000000000000000000602082015250565b6000613a046029836132c1565b9150613a0f826139a8565b604082019050919050565b613a2381612ca0565b82525050565b60006040820190508181036000830152613a42816139f7565b9050613a516020830184613a1a565b92915050565b7f50726f706f73616c20706572696f64206973206f766572210000000000000000600082015250565b6000613a8d6018836132c1565b9150613a9882613a57565b602082019050919050565b60006020820190508181036000830152613abc81613a80565b9050919050565b7f436f6d6d69746d656e7420706572696f64206973207374696c6c20676f696e6760008201527f206f6e2100000000000000000000000000000000000000000000000000000000602082015250565b6000613b1f6024836132c1565b9150613b2a82613ac3565b604082019050919050565b60006020820190508181036000830152613b4e81613b12565b9050919050565b7f52657665616c20706572696f64206973206f7665722100000000000000000000600082015250565b6000613b8b6016836132c1565b9150613b9682613b55565b602082019050919050565b60006020820190508181036000830152613bba81613b7e565b9050919050565b7f50726f706f73616c7320617265206f7665722e00000000000000000000000000600082015250565b6000613bf76013836132c1565b9150613c0282613bc1565b602082019050919050565b60006020820190508181036000830152613c2681613bea565b9050919050565b7f596f7520616c72656164792064696420796f75722070726f706f73616c000000600082015250565b6000613c63601d836132c1565b9150613c6e82613c2d565b602082019050919050565b60006020820190508181036000830152613c9281613c56565b9050919050565b7f43616c6c6572206973206e6f7420746865206f776e6572206f6620746865206360008201527f6f6e747261637421000000000000000000000000000000000000000000000000602082015250565b6000613cf56028836132c1565b9150613d0082613c99565b604082019050919050565b60006020820190508181036000830152613d2481613ce8565b9050919050565b7f50726f706f73616c20706572696f64206973207374696c6c20676f696e67206f60008201527f6e21000000000000000000000000000000000000000000000000000000000000602082015250565b6000613d876022836132c1565b9150613d9282613d2b565b604082019050919050565b60006020820190508181036000830152613db681613d7a565b9050919050565b7f436f6d6d69746d656e7420706572696f64206973206f76657221000000000000600082015250565b6000613df3601a836132c1565b9150613dfe82613dbd565b602082019050919050565b60006020820190508181036000830152613e2281613de6565b9050919050565b7f52657665616c696e6720706572696f64206973206e6f74206f7665722079657460008201527f2100000000000000000000000000000000000000000000000000000000000000602082015250565b6000613e856021836132c1565b9150613e9082613e29565b604082019050919050565b60006020820190508181036000830152613eb481613e78565b9050919050565b7f596f752776652066696e697368656420796f757220766f74696e6720746f6b6560008201527f6e73210000000000000000000000000000000000000000000000000000000000602082015250565b6000613f176023836132c1565b9150613f2282613ebb565b604082019050919050565b60006020820190508181036000830152613f4681613f0a565b9050919050565b7f506c656173652073656e6420746865207374616b650000000000000000000000600082015250565b6000613f836015836132c1565b9150613f8e82613f4d565b602082019050919050565b60006020820190508181036000830152613fb281613f76565b9050919050565b7f566f746520636f6d6d697474656420776974682074686520666f6c6c6f77696e60008201527f6720686173683a00000000000000000000000000000000000000000000000000602082015250565b60006140156027836132c1565b915061402082613fb9565b604082019050919050565b6000604082019050818103600083015261404481614008565b90506140536020830184613a1a565b92915050565b7f57696e6e6572732072657665616c656420616e642062616c6c6f742773206f7660008201527f6572212057696e6e6572733a0000000000000000000000000000000000000000602082015250565b60006140b5602c836132c1565b91506140c082614059565b604082019050919050565b600060608201905081810360008301526140e4816140a8565b905081810360208301526140f88185612e07565b9050818103604083015261410c818461322c565b90509392505050565b7f596f7520616c7265616479206861766520796f757220766f74696e672072696760008201527f6874210000000000000000000000000000000000000000000000000000000000602082015250565b60006141716023836132c1565b915061417c82614115565b604082019050919050565b600060208201905081810360008301526141a081614164565b905091905056fea2646970667358221220c591b19934cfb0fc9d4d221847cde3b3ec71f434a6e9d7e6e8ab17cc9f81b4f064736f6c634300080d0033",
  "immutableReferences": {},
  "source": "pragma solidity ^0.8.0;\npragma experimental ABIEncoderV2;\n\nimport \"./String_Evaluation.sol\";\nimport \"@openzeppelin/contracts/utils/math/SafeMath.sol\";\n\ncontract CommitRevealElections is String_Evaluation {\n\n    using SafeMath for uint256;\n\n    ///// FUNDAMENTAL VARIABLES DEFINITION\n\n    uint256 timeForProposal;\n    uint256 timeForCommitment; \n    uint256 timeForReveal;\n    string ballotTitle;\n    address[] appliersForRights;\n    uint256 startingVotes;\n    uint256 public maximumChoicesAllowed;\n    address public owner;\n    uint256 public numberOfChoices;\n    uint256 public numofWinners;\n    uint256 public amountOfStake;\n\n    // Let's initialize structs\n\n    struct Candidates {\n        string[] candidateList;\n        mapping (string => uint256) votesReceived;\n    }\n\n    struct Voter {\n        address[] voterList;\n        mapping (address => bool[]) depositStake;\n        mapping (address => uint256) totalStakeOfAddress;\n        mapping (address => bytes32[]) voteOfAddress;\n        mapping (address => uint256) attemptedVotes;\n        mapping(bytes32 => uint256) amountOfEachVote;\n    }\n\n    Candidates c;\n    Voter v;\n\n    // Let's build our constructor\n    constructor(uint256 _timeForProposal, uint256 _timeForCommitment, uint256 _timeForReveal, uint256 _maximumChoices, \n                string memory _ballotTitle, address _owner, address[] memory _listOfWAddress, string[] memory _startingCand,\n                uint256 _startingV, uint256 _numofWinners, uint256 _amountOfStake) public {\n        require(_timeForCommitment >= 20);\n        require(_timeForReveal >= 20);\n        require(_startingCand.length <= _maximumChoices);\n        maximumChoicesAllowed = _maximumChoices;\n        timeForProposal = block.timestamp + _timeForProposal * 1 seconds;\n        timeForCommitment = timeForProposal + _timeForCommitment * 1 seconds;\n        timeForReveal = timeForCommitment + _timeForReveal * 1 seconds;\n        ballotTitle = _ballotTitle;\n        startingVotes = _startingV;\n        amountOfStake = _amountOfStake * 1 ether;\n        owner = _owner;\n        for (uint256 y = 0; y < _listOfWAddress.length; y++){\n            v.voterList.push(_listOfWAddress[y]);\n            v.attemptedVotes[_listOfWAddress[y]] = _startingV;\n        }\n        for (uint256 q = 0; q < _startingCand.length; q++){\n            c.candidateList.push(_startingCand[q]);\n        }\n        numberOfChoices = _startingCand.length;\n        numofWinners = _numofWinners;\n    }\n\n    // Information about the current status of the vote\n    uint256 private numberOfVotesCast = 0;\n\n    // The actual votes and vote commits\n    bytes32[] private voteCommits;\n    mapping(bytes32 => string) voteStatuses; // Either `Committed` or `Revealed`\n    \n    // Events used to log what's going on in the contract\n    event missingTime(uint256 missingT);\n    event candidateSet(string newCand);\n    event newVoteCommit(string intro1, bytes32 newVoteC);\n    event newVoteRevealed(string intro2, bytes32 newVoteR);\n    event winnersResults(string intro3, string[] winnersN, uint256[] votesOfWinn);\n\n    mapping (address => bool) private proposedCandidates; // Useful for submitting only one choice\n\n    ///// FUNDAMENTAL FUNCTIONS\n\n    // Function to set the candidates proposed by each voter\n    function setCandidates(string memory _candidate) public {\n        require(block.timestamp <= timeForProposal, \"Proposal period is over!\");\n        require(numberOfChoices <= maximumChoicesAllowed, \"Proposals are over.\");\n        require(checkifWhitelisted(msg.sender) == true, \"You're not allowed to participate in this ballot\");\n        require(proposedCandidates[msg.sender] == false, \"You already did your proposal\"); //Only one proposal\n        for (uint256 p = 0; p < c.candidateList.length; p++) {\n            if (keccak256(abi.encodePacked(_candidate)) == keccak256(abi.encodePacked(c.candidateList[p]))){\n                revert();\n            } else {continue;}\n        } // If candidate is already in the list, revert the transaction\n        c.candidateList.push(_candidate);\n        proposedCandidates[msg.sender] = true;\n        numberOfChoices++;\n        emit candidateSet(_candidate);\n    }\n    \n    // Function to Commit the vote\n    function commitVote(bytes32 _voteCommitment, uint256 _ammontare) public payable {\n\n        require(block.timestamp > timeForProposal, \"Proposal period is still going on!\");\n        require(block.timestamp <= timeForCommitment, \"Commitment period is over!\");\n        require(checkifWhitelisted(msg.sender) == true, \"You're not allowed to participate in this ballot\");\n        require(_ammontare <= v.attemptedVotes[msg.sender], \"You've finished your voting tokens!\");\n        require(msg.value == amountOfStake, \"Please send the stake\");\n        \n        // Check if this commit has been used before\n        bytes memory bytesVoteCommit = bytes(voteStatuses[_voteCommitment]);\n        require(bytesVoteCommit.length == 0);\n        \n        // We are still in the committing period & the commit is new so add it\n        voteCommits.push(_voteCommitment);\n        voteStatuses[_voteCommitment] = \"Committed\";\n        v.voteOfAddress[msg.sender].push(_voteCommitment);\n        numberOfVotesCast += _ammontare;\n        v.amountOfEachVote[_voteCommitment] = _ammontare;\n        v.attemptedVotes[msg.sender] -= _ammontare;\n        v.depositStake[msg.sender].push(true);\n        v.totalStakeOfAddress[msg.sender] += amountOfStake;\n        emit newVoteCommit(\"Vote committed with the following hash:\", _voteCommitment);\n    }\n\n    mapping (address => bool) private isTrue; // Useful for vote only once\n\n    // Function to Reveal the vote\n    function revealVote(string memory _vote, bytes32 _voteCommit) public {\n\n        // Requirements! Very important to secure the whole process\n        require(checkifWhitelisted(msg.sender) == true, \"You're not allowed to participate in this ballot\");\n        for (uint256 tru = 0; tru < v.depositStake[msg.sender].length; tru++){\n            require (v.depositStake[msg.sender][tru] == true, \"You didn't deposit the stake for all your votes!\");\n        }\n        require (v.depositStake[msg.sender].length == v.voteOfAddress[msg.sender].length, \"You didn't deposit the stake for all your votes!\");\n        require(block.timestamp > timeForCommitment, \"Time is not over! You cannot reveal your vote yet\");\n        require(block.timestamp <= timeForReveal, \"Revealing period is over!\");\n        for (uint256 u = 0; u < v.voteOfAddress[msg.sender].length; u++){\n            if (v.voteOfAddress[msg.sender][u] == _voteCommit){\n                isTrue[msg.sender] = true;\n            } else {continue;}\n        }\n        require(isTrue[msg.sender] == true, \"You didn't cast this vote!\");\n        bytes memory bytesVoteStatus = bytes(voteStatuses[_voteCommit]); //To be counted, it has to be \"Committed\"\n        require(bytesVoteStatus[0] == \"C\", \"This vote was already cast\");\n        require(_voteCommit == keccak256(abi.encodePacked(_vote)), \"Vote hash does not match vote commit\");\n        \n       // NEXT: Count the vote! To count it we take the substring until character \"-\", and we compare it to the candidates\n        uint256 lenOfVote = utfStringLength(_vote);\n        uint256 divisor;\n        for (uint256 i = 1; i<lenOfVote; i++) {\n            string memory substr = getSlice(i, i, _vote);\n            if (keccak256(abi.encodePacked(substr)) == keccak256(abi.encodePacked(\"-\"))){\n                divisor = i;\n            } else {continue;}\n        }\n        string memory finalVote = getSlice(1, divisor-1, _vote);\n        for (uint256 j = 0; j < numberOfChoices; j++){\n            if (keccak256(abi.encodePacked(finalVote)) == keccak256(abi.encodePacked(c.candidateList[j]))){\n                c.votesReceived[c.candidateList[j]] += v.amountOfEachVote[_voteCommit];\n            } else {continue;}\n        }\n        voteStatuses[_voteCommit] = \"Revealed\";\n        payable(msg.sender).transfer(amountOfStake);\n        v.totalStakeOfAddress[msg.sender] -= amountOfStake;\n        emit newVoteRevealed(\"Vote revealed and counted with commitment\", _voteCommit);\n    }\n\n    mapping(string => bool) userinList;\n\n    // Function to be used after Time for Revealing is over. You can see the winners of the ballot\n    function getWinners() public onlyOwner returns(string[] memory, uint256[] memory) {\n\n        require(block.timestamp > timeForReveal, \"Revealing period is not over yet!\");\n\n        uint256[] memory store_vars = new uint256[](numofWinners);\n        string[] memory Win_Cands = new string[](numofWinners);\n\n        for (uint256 cnumb = 0; cnumb < numofWinners; cnumb++) {\n            for(uint256 xx = 0; xx < c.candidateList.length; xx++){\n                if (store_vars[cnumb] <= c.votesReceived[c.candidateList[xx]] && userinList[c.candidateList[xx]] == false) {\n                    store_vars[cnumb] = c.votesReceived[c.candidateList[xx]];\n                    Win_Cands[cnumb] = c.candidateList[xx];  \n                }\n            }\n            userinList[Win_Cands[cnumb]] = true;  \n        }\n        emit winnersResults(\"Winners revealed and ballot's over! Winners:\", Win_Cands, store_vars); \n        \n        for (uint256 wnumb = 0; wnumb < Win_Cands.length; wnumb++) {\n            userinList[Win_Cands[wnumb]] = false;\n        } // Reset of mapping\n\n        return (Win_Cands, store_vars); \n    }\n\n    ///// OTHER FUNCTIONS\n\n    // Modifier to allow functions callable only by the owner\n    modifier onlyOwner {\n        require(msg.sender == owner, \"Caller is not the owner of the contract!\");\n        _;\n    }\n\n    //Function to check if voter is enabled to vote\n    function checkifWhitelisted(address _indir) private view returns (bool) {\n        for(uint256 k = 0; k < v.voterList.length; k++) {\n            address indir = v.voterList[k];\n            if (indir == _indir) {\n                return true;\n            }\n        }\n        return false;\n    }\n\n    // Function to apply for rights\n    function applyForRights() public {\n        for (uint256 votnum = 0; votnum < v.voterList.length; votnum++){\n            require(msg.sender != v.voterList[votnum], \"You already have your voting right!\");\n        }\n        require(block.timestamp <= timeForCommitment, \"Commitment period is over!\");\n        appliersForRights.push(msg.sender);\n    }\n\n    // Function that allows owner to see who applied for vote rights\n    function showApplierForRights() public view onlyOwner returns(address[] memory){\n        require(block.timestamp <= timeForCommitment, \"Commitment period is over!\");\n        return appliersForRights;\n    }\n\n    // Function that allows owner to give vote rights to the voters who asked for rights\n    function giveRightsToAddresses(address[] memory _newWhiteAddresses) public onlyOwner {\n        require(block.timestamp <= timeForCommitment, \"Commitment period is over!\");\n        for (uint256 ynum = 0; ynum < _newWhiteAddresses.length; ynum++){\n            v.voterList.push(_newWhiteAddresses[ynum]);\n            v.attemptedVotes[_newWhiteAddresses[ynum]] = startingVotes;\n        }\n    }\n\n    // Function to see the proposed candidates up to that moment\n    function showCandidates() public view returns(string[] memory) {\n        require(checkifWhitelisted(msg.sender) == true, \"You're not allowed to participate in this ballot\");\n        return c.candidateList;\n    }\n\n    // Function to be used after Time for Revealing is over. You can see votes for a single candidate\n    function votesForACandidate(string memory _candidate) public view onlyOwner returns(uint256) {\n        require(block.timestamp >= timeForReveal, \"Revealing period is not over yet!\");\n        return c.votesReceived[_candidate];\n    }\n\n    // Function to see the remaining time for PROPOSAL\n    function getRemainingTimeForProposal() public returns (uint256) {\n        require(checkifWhitelisted(msg.sender) == true, \"You're not allowed to participate in this ballot\");\n        require(block.timestamp <= timeForProposal, \"Proposal period is over!\");\n        emit missingTime(timeForProposal - block.timestamp);\n        return timeForProposal - block.timestamp;\n    }\n\n    // Function to see the remaining time for COMMITMENT\n    function getRemainingTimeForCommitment() public returns (uint256) {\n        require(checkifWhitelisted(msg.sender) == true, \"You're not allowed to participate in this ballot\");\n        require(block.timestamp > timeForProposal, \"Proposal period is still going on!\");\n        require(block.timestamp <= timeForCommitment, \"Commitment period is over!\");\n        emit missingTime(timeForCommitment - block.timestamp);\n        return timeForCommitment - block.timestamp;\n    }\n\n    // Function to see the remaining time for REVEAL\n    function getRemainingTimeForReveal() public returns (uint256) {\n        require(checkifWhitelisted(msg.sender) == true, \"You're not allowed to participate in this ballot\");\n        require(block.timestamp > timeForCommitment, \"Commitment period is still going on!\");\n        require(block.timestamp <= timeForReveal, \"Reveal period is over!\");\n        emit missingTime(timeForReveal - block.timestamp);\n        return timeForReveal - block.timestamp;\n    }\n\n    // Function to get title of ballot\n    function getTitle() public view returns (string memory) {\n        require(checkifWhitelisted(msg.sender) == true, \"You're not allowed to participate in this ballot\");\n        return ballotTitle;\n    }\n\n    function ballotBalance() external view onlyOwner returns(uint balanceEth) {\n        balanceEth = address(this).balance;\n    }\n\n}",
  "sourcePath": "/home/dimitar/Documents/Fintech/Fintech_DApp/contracts/CommitRevealElections.sol",
  "compiler": {
    "name": "solc",
    "version": "0.8.13+commit.abaa5c0e.Emscripten.clang"
  },
  "schemaVersion": "3.4.6",
  "updatedAt": "2022-04-02T10:52:29.589Z",
  "networkType": "ethereum",
  "devdoc": {
    "kind": "dev",
    "methods": {},
    "version": 1
  },
  "userdoc": {
    "kind": "user",
    "methods": {},
    "version": 1
  }
}